{
  "_format": "hh-sol-artifact-1",
  "contractName": "MedicalRecordRegistry",
  "sourceName": "blockchain/contracts/MedicalRecordRegistry.sol",
  "abi": [
    {
      "inputs": [
        {
          "internalType": "bytes32",
          "name": "recordHash",
          "type": "bytes32"
        },
        {
          "internalType": "address",
          "name": "caller",
          "type": "address"
        }
      ],
      "name": "NotRecordOwner",
      "type": "error"
    },
    {
      "inputs": [
        {
          "internalType": "bytes32",
          "name": "recordHash",
          "type": "bytes32"
        }
      ],
      "name": "RecordAlreadyExists",
      "type": "error"
    },
    {
      "anonymous": false,
      "inputs": [
        {
          "indexed": true,
          "internalType": "bytes32",
          "name": "recordHash",
          "type": "bytes32"
        },
        {
          "indexed": true,
          "internalType": "address",
          "name": "ownerAddress",
          "type": "address"
        },
        {
          "indexed": true,
          "internalType": "address",
          "name": "doctorAddress",
          "type": "address"
        },
        {
          "indexed": false,
          "internalType": "uint256",
          "name": "timestamp",
          "type": "uint256"
        }
      ],
      "name": "AccessGranted",
      "type": "event"
    },
    {
      "anonymous": false,
      "inputs": [
        {
          "indexed": true,
          "internalType": "bytes32",
          "name": "recordHash",
          "type": "bytes32"
        },
        {
          "indexed": true,
          "internalType": "address",
          "name": "ownerAddress",
          "type": "address"
        },
        {
          "indexed": true,
          "internalType": "address",
          "name": "doctorAddress",
          "type": "address"
        },
        {
          "indexed": false,
          "internalType": "uint256",
          "name": "timestamp",
          "type": "uint256"
        }
      ],
      "name": "AccessRevoked",
      "type": "event"
    },
    {
      "anonymous": false,
      "inputs": [
        {
          "indexed": true,
          "internalType": "bytes32",
          "name": "recordHash",
          "type": "bytes32"
        },
        {
          "indexed": true,
          "internalType": "string",
          "name": "patientDid",
          "type": "string"
        },
        {
          "indexed": false,
          "internalType": "string",
          "name": "recordType",
          "type": "string"
        },
        {
          "indexed": false,
          "internalType": "uint256",
          "name": "timestamp",
          "type": "uint256"
        },
        {
          "indexed": true,
          "internalType": "address",
          "name": "submitter",
          "type": "address"
        }
      ],
      "name": "RecordAdded",
      "type": "event"
    },
    {
      "inputs": [
        {
          "internalType": "bytes32",
          "name": "recordHash",
          "type": "bytes32"
        },
        {
          "internalType": "string",
          "name": "patientDid",
          "type": "string"
        },
        {
          "internalType": "string",
          "name": "recordType",
          "type": "string"
        }
      ],
      "name": "addRecord",
      "outputs": [],
      "stateMutability": "nonpayable",
      "type": "function"
    },
    {
      "inputs": [
        {
          "internalType": "bytes32",
          "name": "recordHash",
          "type": "bytes32"
        },
        {
          "internalType": "address",
          "name": "accessorAddress",
          "type": "address"
        }
      ],
      "name": "checkAccess",
      "outputs": [
        {
          "internalType": "bool",
          "name": "",
          "type": "bool"
        }
      ],
      "stateMutability": "view",
      "type": "function"
    },
    {
      "inputs": [
        {
          "internalType": "string",
          "name": "patientDid",
          "type": "string"
        }
      ],
      "name": "getRecordHashesByPatient",
      "outputs": [
        {
          "internalType": "bytes32[]",
          "name": "",
          "type": "bytes32[]"
        }
      ],
      "stateMutability": "view",
      "type": "function"
    },
    {
      "inputs": [
        {
          "internalType": "bytes32",
          "name": "recordHash",
          "type": "bytes32"
        }
      ],
      "name": "getRecordMetadata",
      "outputs": [
        {
          "components": [
            {
              "internalType": "string",
              "name": "patientDid",
              "type": "string"
            },
            {
              "internalType": "string",
              "name": "recordType",
              "type": "string"
            },
            {
              "internalType": "uint256",
              "name": "timestamp",
              "type": "uint256"
            },
            {
              "internalType": "address",
              "name": "submitter",
              "type": "address"
            }
          ],
          "internalType": "struct MedicalRecordRegistry.RecordMetadata",
          "name": "",
          "type": "tuple"
        }
      ],
      "stateMutability": "view",
      "type": "function"
    },
    {
      "inputs": [
        {
          "internalType": "bytes32",
          "name": "recordHash",
          "type": "bytes32"
        },
        {
          "internalType": "address",
          "name": "doctorAddress",
          "type": "address"
        }
      ],
      "name": "grantAccess",
      "outputs": [],
      "stateMutability": "nonpayable",
      "type": "function"
    },
    {
      "inputs": [
        {
          "internalType": "bytes32",
          "name": "",
          "type": "bytes32"
        }
      ],
      "name": "recordExists",
      "outputs": [
        {
          "internalType": "bool",
          "name": "",
          "type": "bool"
        }
      ],
      "stateMutability": "view",
      "type": "function"
    },
    {
      "inputs": [
        {
          "internalType": "bytes32",
          "name": "recordHash",
          "type": "bytes32"
        },
        {
          "internalType": "address",
          "name": "doctorAddress",
          "type": "address"
        }
      ],
      "name": "revokeAccess",
      "outputs": [],
      "stateMutability": "nonpayable",
      "type": "function"
    }
  ],
  "bytecode": "0x608060405234801561001057600080fd5b506118f4806100206000396000f3fe608060405234801561001057600080fd5b506004361061007d5760003560e01c806357f083041161005b57806357f08304146100fe5780638d53b2081461012e578063e27929b61461014a578063f79fe538146101665761007d565b80633e1fd0da146100825780633e9bbc8a146100b257806340554c3a146100e2575b600080fd5b61009c60048036038101906100979190610f0b565b610196565b6040516100a99190610f66565b60405180910390f35b6100cc60048036038101906100c79190610fe6565b6101fe565b6040516100d991906110f1565b60405180910390f35b6100fc60048036038101906100f79190610f0b565b610277565b005b61011860048036038101906101139190611113565b6105d9565b6040516101259190611262565b60405180910390f35b61014860048036038101906101439190610f0b565b610789565b005b610164600480360381019061015f9190611284565b610aeb565b005b610180600480360381019061017b9190611113565b610e0f565b60405161018d9190610f66565b60405180910390f35b60006003600084815260200190815260200160002060008373ffffffffffffffffffffffffffffffffffffffff1673ffffffffffffffffffffffffffffffffffffffff16815260200190815260200160002060009054906101000a900460ff16905092915050565b606060028383604051610212929190611358565b908152602001604051809103902080548060200260200160405190810160405280929190818152602001828054801561026a57602002820191906000526020600020905b815481526020019060010190808311610256575b5050505050905092915050565b60008060008481526020019081526020016000206040518060800160405290816000820180546102a6906113a0565b80601f01602080910402602001604051908101604052809291908181526020018280546102d2906113a0565b801561031f5780601f106102f45761010080835404028352916020019161031f565b820191906000526020600020905b81548152906001019060200180831161030257829003601f168201915b50505050508152602001600182018054610338906113a0565b80601f0160208091040260200160405190810160405280929190818152602001828054610364906113a0565b80156103b15780601f10610386576101008083540402835291602001916103b1565b820191906000526020600020905b81548152906001019060200180831161039457829003601f168201915b50505050508152602001600282015481526020016003820160009054906101000a900473ffffffffffffffffffffffffffffffffffffffff1673ffffffffffffffffffffffffffffffffffffffff1673ffffffffffffffffffffffffffffffffffffffff16815250509050600073ffffffffffffffffffffffffffffffffffffffff16816060015173ffffffffffffffffffffffffffffffffffffffff160361048f576040517f08c379a00000000000000000000000000000000000000000000000000000000081526004016104869061142e565b60405180910390fd5b806060015173ffffffffffffffffffffffffffffffffffffffff163373ffffffffffffffffffffffffffffffffffffffff16146105055782336040517f2ae7d6260000000000000000000000000000000000000000000000000000000081526004016104fc92919061146c565b60405180910390fd5b60016003600085815260200190815260200160002060008473ffffffffffffffffffffffffffffffffffffffff1673ffffffffffffffffffffffffffffffffffffffff16815260200190815260200160002060006101000a81548160ff0219169083151502179055508173ffffffffffffffffffffffffffffffffffffffff163373ffffffffffffffffffffffffffffffffffffffff16847fe8c34df6c7ca96a04e8dd74d36737b8c1c3def019e8ee13253c0769a094e5970426040516105cc91906114a4565b60405180910390a4505050565b6105e1610e2f565b60008083815260200190815260200160002060405180608001604052908160008201805461060e906113a0565b80601f016020809104026020016040519081016040528092919081815260200182805461063a906113a0565b80156106875780601f1061065c57610100808354040283529160200191610687565b820191906000526020600020905b81548152906001019060200180831161066a57829003601f168201915b505050505081526020016001820180546106a0906113a0565b80601f01602080910402602001604051908101604052809291908181526020018280546106cc906113a0565b80156107195780601f106106ee57610100808354040283529160200191610719565b820191906000526020600020905b8154815290600101906020018083116106fc57829003601f168201915b50505050508152602001600282015481526020016003820160009054906101000a900473ffffffffffffffffffffffffffffffffffffffff1673ffffffffffffffffffffffffffffffffffffffff1673ffffffffffffffffffffffffffffffffffffffff16815250509050919050565b60008060008481526020019081526020016000206040518060800160405290816000820180546107b8906113a0565b80601f01602080910402602001604051908101604052809291908181526020018280546107e4906113a0565b80156108315780601f1061080657610100808354040283529160200191610831565b820191906000526020600020905b81548152906001019060200180831161081457829003601f168201915b5050505050815260200160018201805461084a906113a0565b80601f0160208091040260200160405190810160405280929190818152602001828054610876906113a0565b80156108c35780601f10610898576101008083540402835291602001916108c3565b820191906000526020600020905b8154815290600101906020018083116108a657829003601f168201915b50505050508152602001600282015481526020016003820160009054906101000a900473ffffffffffffffffffffffffffffffffffffffff1673ffffffffffffffffffffffffffffffffffffffff1673ffffffffffffffffffffffffffffffffffffffff16815250509050600073ffffffffffffffffffffffffffffffffffffffff16816060015173ffffffffffffffffffffffffffffffffffffffff16036109a1576040517f08c379a00000000000000000000000000000000000000000000000000000000081526004016109989061142e565b60405180910390fd5b806060015173ffffffffffffffffffffffffffffffffffffffff163373ffffffffffffffffffffffffffffffffffffffff1614610a175782336040517f2ae7d626000000000000000000000000000000000000000000000000000000008152600401610a0e92919061146c565b60405180910390fd5b60006003600085815260200190815260200160002060008473ffffffffffffffffffffffffffffffffffffffff1673ffffffffffffffffffffffffffffffffffffffff16815260200190815260200160002060006101000a81548160ff0219169083151502179055508173ffffffffffffffffffffffffffffffffffffffff163373ffffffffffffffffffffffffffffffffffffffff16847f4c4c4b887a779997bb48fdefff9f7a6e2ab598176538082eb4334267a22c0d5842604051610ade91906114a4565b60405180910390a4505050565b6001600086815260200190815260200160002060009054906101000a900460ff1615610b4e57846040517f268888cc000000000000000000000000000000000000000000000000000000008152600401610b4591906114bf565b60405180910390fd5b60008484905011610b94576040517f08c379a0000000000000000000000000000000000000000000000000000000008152600401610b8b90611526565b60405180910390fd5b60008282905011610bda576040517f08c379a0000000000000000000000000000000000000000000000000000000008152600401610bd190611592565b60405180910390fd5b604051806080016040528085858080601f016020809104026020016040519081016040528093929190818152602001838380828437600081840152601f19601f82011690508083019250505050505050815260200183838080601f016020809104026020016040519081016040528093929190818152602001838380828437600081840152601f19601f8201169050808301925050505050505081526020014281526020013373ffffffffffffffffffffffffffffffffffffffff168152506000808781526020019081526020016000206000820151816000019081610cc0919061178d565b506020820151816001019081610cd6919061178d565b506040820151816002015560608201518160030160006101000a81548173ffffffffffffffffffffffffffffffffffffffff021916908373ffffffffffffffffffffffffffffffffffffffff160217905550905050600180600087815260200190815260200160002060006101000a81548160ff02191690831515021790555060028484604051610d68929190611358565b90815260200160405180910390208590806001815401808255809150506001900390600052602060002001600090919091909150553373ffffffffffffffffffffffffffffffffffffffff168484604051610dc4929190611358565b6040518091039020867f5693ecc9d8c2c67feec2049afcb72e0be42f83e7e62b0be1a76d00c8af4f9f74858542604051610e009392919061188c565b60405180910390a45050505050565b60016020528060005260406000206000915054906101000a900460ff1681565b6040518060800160405280606081526020016060815260200160008152602001600073ffffffffffffffffffffffffffffffffffffffff1681525090565b600080fd5b600080fd5b6000819050919050565b610e8a81610e77565b8114610e9557600080fd5b50565b600081359050610ea781610e81565b92915050565b600073ffffffffffffffffffffffffffffffffffffffff82169050919050565b6000610ed882610ead565b9050919050565b610ee881610ecd565b8114610ef357600080fd5b50565b600081359050610f0581610edf565b92915050565b60008060408385031215610f2257610f21610e6d565b5b6000610f3085828601610e98565b9250506020610f4185828601610ef6565b9150509250929050565b60008115159050919050565b610f6081610f4b565b82525050565b6000602082019050610f7b6000830184610f57565b92915050565b600080fd5b600080fd5b600080fd5b60008083601f840112610fa657610fa5610f81565b5b8235905067ffffffffffffffff811115610fc357610fc2610f86565b5b602083019150836001820283011115610fdf57610fde610f8b565b5b9250929050565b60008060208385031215610ffd57610ffc610e6d565b5b600083013567ffffffffffffffff81111561101b5761101a610e72565b5b61102785828601610f90565b92509250509250929050565b600081519050919050565b600082825260208201905092915050565b6000819050602082019050919050565b61106881610e77565b82525050565b600061107a838361105f565b60208301905092915050565b6000602082019050919050565b600061109e82611033565b6110a8818561103e565b93506110b38361104f565b8060005b838110156110e45781516110cb888261106e565b97506110d683611086565b9250506001810190506110b7565b5085935050505092915050565b6000602082019050818103600083015261110b8184611093565b905092915050565b60006020828403121561112957611128610e6d565b5b600061113784828501610e98565b91505092915050565b600081519050919050565b600082825260208201905092915050565b60005b8381101561117a57808201518184015260208101905061115f565b60008484015250505050565b6000601f19601f8301169050919050565b60006111a282611140565b6111ac818561114b565b93506111bc81856020860161115c565b6111c581611186565b840191505092915050565b6000819050919050565b6111e3816111d0565b82525050565b6111f281610ecd565b82525050565b600060808301600083015184820360008601526112158282611197565b9150506020830151848203602086015261122f8282611197565b915050604083015161124460408601826111da565b50606083015161125760608601826111e9565b508091505092915050565b6000602082019050818103600083015261127c81846111f8565b905092915050565b6000806000806000606086880312156112a05761129f610e6d565b5b60006112ae88828901610e98565b955050602086013567ffffffffffffffff8111156112cf576112ce610e72565b5b6112db88828901610f90565b9450945050604086013567ffffffffffffffff8111156112fe576112fd610e72565b5b61130a88828901610f90565b92509250509295509295909350565b600081905092915050565b82818337600083830152505050565b600061133f8385611319565b935061134c838584611324565b82840190509392505050565b6000611365828486611333565b91508190509392505050565b7f4e487b7100000000000000000000000000000000000000000000000000000000600052602260045260246000fd5b600060028204905060018216806113b857607f821691505b6020821081036113cb576113ca611371565b5b50919050565b600082825260208201905092915050565b7f5265636f726420646f6573206e6f742065786973740000000000000000000000600082015250565b60006114186015836113d1565b9150611423826113e2565b602082019050919050565b600060208201905081810360008301526114478161140b565b9050919050565b61145781610e77565b82525050565b61146681610ecd565b82525050565b6000604082019050611481600083018561144e565b61148e602083018461145d565b9392505050565b61149e816111d0565b82525050565b60006020820190506114b96000830184611495565b92915050565b60006020820190506114d4600083018461144e565b92915050565b7f50617469656e74204449442063616e6e6f7420626520656d7074790000000000600082015250565b6000611510601b836113d1565b915061151b826114da565b602082019050919050565b6000602082019050818103600083015261153f81611503565b9050919050565b7f5265636f726420747970652063616e6e6f7420626520656d7074790000000000600082015250565b600061157c601b836113d1565b915061158782611546565b602082019050919050565b600060208201905081810360008301526115ab8161156f565b9050919050565b7f4e487b7100000000000000000000000000000000000000000000000000000000600052604160045260246000fd5b60008190508160005260206000209050919050565b60006020601f8301049050919050565b600082821b905092915050565b6000600883026116437fffffffffffffffffffffffffffffffffffffffffffffffffffffffffffffffff82611606565b61164d8683611606565b95508019841693508086168417925050509392505050565b6000819050919050565b600061168a611685611680846111d0565b611665565b6111d0565b9050919050565b6000819050919050565b6116a48361166f565b6116b86116b082611691565b848454611613565b825550505050565b600090565b6116cd6116c0565b6116d881848461169b565b505050565b5b818110156116fc576116f16000826116c5565b6001810190506116de565b5050565b601f82111561174157611712816115e1565b61171b846115f6565b8101602085101561172a578190505b61173e611736856115f6565b8301826116dd565b50505b505050565b600082821c905092915050565b600061176460001984600802611746565b1980831691505092915050565b600061177d8383611753565b9150826002028217905092915050565b61179682611140565b67ffffffffffffffff8111156117af576117ae6115b2565b5b6117b982546113a0565b6117c4828285611700565b600060209050601f8311600181146117f757600084156117e5578287015190505b6117ef8582611771565b865550611857565b601f198416611805866115e1565b60005b8281101561182d57848901518255600182019150602085019450602081019050611808565b8683101561184a5784890151611846601f891682611753565b8355505b6001600288020188555050505b505050505050565b600061186b83856113d1565b9350611878838584611324565b61188183611186565b840190509392505050565b600060408201905081810360008301526118a781858761185f565b90506118b66020830184611495565b94935050505056fea264697066735822122074df7be520e688c4491a00b5426e825328878a7955f7848bc5821121de1114f064736f6c63430008180033",
  "linkReferences": {},
  "deployedLinkReferences": {}
}