{
  "_format": "hh-sol-artifact-1",
  "contractName": "MedicalRecordRegistry",
  "sourceName": "blockchain/contracts/MedicalRecordRegistry.sol",
  "abi": [
    {
      "inputs": [
        {
          "internalType": "bytes32",
          "name": "recordHash",
          "type": "bytes32"
        }
      ],
      "name": "RecordAlreadyExists",
      "type": "error"
    },
    {
      "anonymous": false,
      "inputs": [
        {
          "indexed": true,
          "internalType": "bytes32",
          "name": "recordHash",
          "type": "bytes32"
        },
        {
          "indexed": true,
          "internalType": "string",
          "name": "patientDid",
          "type": "string"
        },
        {
          "indexed": false,
          "internalType": "string",
          "name": "recordType",
          "type": "string"
        },
        {
          "indexed": false,
          "internalType": "uint256",
          "name": "timestamp",
          "type": "uint256"
        },
        {
          "indexed": true,
          "internalType": "address",
          "name": "submitter",
          "type": "address"
        }
      ],
      "name": "RecordAdded",
      "type": "event"
    },
    {
      "inputs": [
        {
          "internalType": "bytes32",
          "name": "recordHash",
          "type": "bytes32"
        },
        {
          "internalType": "string",
          "name": "patientDid",
          "type": "string"
        },
        {
          "internalType": "string",
          "name": "recordType",
          "type": "string"
        }
      ],
      "name": "addRecord",
      "outputs": [],
      "stateMutability": "nonpayable",
      "type": "function"
    },
    {
      "inputs": [
        {
          "internalType": "string",
          "name": "patientDid",
          "type": "string"
        }
      ],
      "name": "getRecordHashesByPatient",
      "outputs": [
        {
          "internalType": "bytes32[]",
          "name": "",
          "type": "bytes32[]"
        }
      ],
      "stateMutability": "view",
      "type": "function"
    },
    {
      "inputs": [
        {
          "internalType": "bytes32",
          "name": "recordHash",
          "type": "bytes32"
        }
      ],
      "name": "getRecordMetadata",
      "outputs": [
        {
          "components": [
            {
              "internalType": "string",
              "name": "patientDid",
              "type": "string"
            },
            {
              "internalType": "string",
              "name": "recordType",
              "type": "string"
            },
            {
              "internalType": "uint256",
              "name": "timestamp",
              "type": "uint256"
            },
            {
              "internalType": "address",
              "name": "submitter",
              "type": "address"
            }
          ],
          "internalType": "struct MedicalRecordRegistry.RecordMetadata",
          "name": "",
          "type": "tuple"
        }
      ],
      "stateMutability": "view",
      "type": "function"
    },
    {
      "inputs": [
        {
          "internalType": "bytes32",
          "name": "",
          "type": "bytes32"
        }
      ],
      "name": "recordExists",
      "outputs": [
        {
          "internalType": "bool",
          "name": "",
          "type": "bool"
        }
      ],
      "stateMutability": "view",
      "type": "function"
    }
  ],
  "bytecode": "0x608060405234801561001057600080fd5b50611004806100206000396000f3fe608060405234801561001057600080fd5b506004361061004c5760003560e01c80633e9bbc8a1461005157806357f0830414610081578063e27929b6146100b1578063f79fe538146100cd575b600080fd5b61006b60048036038101906100669190610717565b6100fd565b604051610078919061082c565b60405180910390f35b61009b6004803603810190610096919061087a565b610176565b6040516100a891906109fb565b60405180910390f35b6100cb60048036038101906100c69190610a1d565b610326565b005b6100e760048036038101906100e2919061087a565b61064a565b6040516100f49190610acd565b60405180910390f35b606060028383604051610111929190610b27565b908152602001604051809103902080548060200260200160405190810160405280929190818152602001828054801561016957602002820191906000526020600020905b815481526020019060010190808311610155575b5050505050905092915050565b61017e61066a565b6000808381526020019081526020016000206040518060800160405290816000820180546101ab90610b6f565b80601f01602080910402602001604051908101604052809291908181526020018280546101d790610b6f565b80156102245780601f106101f957610100808354040283529160200191610224565b820191906000526020600020905b81548152906001019060200180831161020757829003601f168201915b5050505050815260200160018201805461023d90610b6f565b80601f016020809104026020016040519081016040528092919081815260200182805461026990610b6f565b80156102b65780601f1061028b576101008083540402835291602001916102b6565b820191906000526020600020905b81548152906001019060200180831161029957829003601f168201915b50505050508152602001600282015481526020016003820160009054906101000a900473ffffffffffffffffffffffffffffffffffffffff1673ffffffffffffffffffffffffffffffffffffffff1673ffffffffffffffffffffffffffffffffffffffff16815250509050919050565b6001600086815260200190815260200160002060009054906101000a900460ff161561038957846040517f268888cc0000000000000000000000000000000000000000000000000000000081526004016103809190610baf565b60405180910390fd5b600084849050116103cf576040517f08c379a00000000000000000000000000000000000000000000000000000000081526004016103c690610c27565b60405180910390fd5b60008282905011610415576040517f08c379a000000000000000000000000000000000000000000000000000000000815260040161040c90610c93565b60405180910390fd5b604051806080016040528085858080601f016020809104026020016040519081016040528093929190818152602001838380828437600081840152601f19601f82011690508083019250505050505050815260200183838080601f016020809104026020016040519081016040528093929190818152602001838380828437600081840152601f19601f8201169050808301925050505050505081526020014281526020013373ffffffffffffffffffffffffffffffffffffffff1681525060008087815260200190815260200160002060008201518160000190816104fb9190610e8e565b5060208201518160010190816105119190610e8e565b506040820151816002015560608201518160030160006101000a81548173ffffffffffffffffffffffffffffffffffffffff021916908373ffffffffffffffffffffffffffffffffffffffff160217905550905050600180600087815260200190815260200160002060006101000a81548160ff021916908315150217905550600284846040516105a3929190610b27565b90815260200160405180910390208590806001815401808255809150506001900390600052602060002001600090919091909150553373ffffffffffffffffffffffffffffffffffffffff1684846040516105ff929190610b27565b6040518091039020867f5693ecc9d8c2c67feec2049afcb72e0be42f83e7e62b0be1a76d00c8af4f9f7485854260405161063b93929190610f9c565b60405180910390a45050505050565b60016020528060005260406000206000915054906101000a900460ff1681565b6040518060800160405280606081526020016060815260200160008152602001600073ffffffffffffffffffffffffffffffffffffffff1681525090565b600080fd5b600080fd5b600080fd5b600080fd5b600080fd5b60008083601f8401126106d7576106d66106b2565b5b8235905067ffffffffffffffff8111156106f4576106f36106b7565b5b6020830191508360018202830111156107105761070f6106bc565b5b9250929050565b6000806020838503121561072e5761072d6106a8565b5b600083013567ffffffffffffffff81111561074c5761074b6106ad565b5b610758858286016106c1565b92509250509250929050565b600081519050919050565b600082825260208201905092915050565b6000819050602082019050919050565b6000819050919050565b6107a381610790565b82525050565b60006107b5838361079a565b60208301905092915050565b6000602082019050919050565b60006107d982610764565b6107e3818561076f565b93506107ee83610780565b8060005b8381101561081f57815161080688826107a9565b9750610811836107c1565b9250506001810190506107f2565b5085935050505092915050565b6000602082019050818103600083015261084681846107ce565b905092915050565b61085781610790565b811461086257600080fd5b50565b6000813590506108748161084e565b92915050565b6000602082840312156108905761088f6106a8565b5b600061089e84828501610865565b91505092915050565b600081519050919050565b600082825260208201905092915050565b60005b838110156108e15780820151818401526020810190506108c6565b60008484015250505050565b6000601f19601f8301169050919050565b6000610909826108a7565b61091381856108b2565b93506109238185602086016108c3565b61092c816108ed565b840191505092915050565b6000819050919050565b61094a81610937565b82525050565b600073ffffffffffffffffffffffffffffffffffffffff82169050919050565b600061097b82610950565b9050919050565b61098b81610970565b82525050565b600060808301600083015184820360008601526109ae82826108fe565b915050602083015184820360208601526109c882826108fe565b91505060408301516109dd6040860182610941565b5060608301516109f06060860182610982565b508091505092915050565b60006020820190508181036000830152610a158184610991565b905092915050565b600080600080600060608688031215610a3957610a386106a8565b5b6000610a4788828901610865565b955050602086013567ffffffffffffffff811115610a6857610a676106ad565b5b610a74888289016106c1565b9450945050604086013567ffffffffffffffff811115610a9757610a966106ad565b5b610aa3888289016106c1565b92509250509295509295909350565b60008115159050919050565b610ac781610ab2565b82525050565b6000602082019050610ae26000830184610abe565b92915050565b600081905092915050565b82818337600083830152505050565b6000610b0e8385610ae8565b9350610b1b838584610af3565b82840190509392505050565b6000610b34828486610b02565b91508190509392505050565b7f4e487b7100000000000000000000000000000000000000000000000000000000600052602260045260246000fd5b60006002820490506001821680610b8757607f821691505b602082108103610b9a57610b99610b40565b5b50919050565b610ba981610790565b82525050565b6000602082019050610bc46000830184610ba0565b92915050565b600082825260208201905092915050565b7f50617469656e74204449442063616e6e6f7420626520656d7074790000000000600082015250565b6000610c11601b83610bca565b9150610c1c82610bdb565b602082019050919050565b60006020820190508181036000830152610c4081610c04565b9050919050565b7f5265636f726420747970652063616e6e6f7420626520656d7074790000000000600082015250565b6000610c7d601b83610bca565b9150610c8882610c47565b602082019050919050565b60006020820190508181036000830152610cac81610c70565b9050919050565b7f4e487b7100000000000000000000000000000000000000000000000000000000600052604160045260246000fd5b60008190508160005260206000209050919050565b60006020601f8301049050919050565b600082821b905092915050565b600060088302610d447fffffffffffffffffffffffffffffffffffffffffffffffffffffffffffffffff82610d07565b610d4e8683610d07565b95508019841693508086168417925050509392505050565b6000819050919050565b6000610d8b610d86610d8184610937565b610d66565b610937565b9050919050565b6000819050919050565b610da583610d70565b610db9610db182610d92565b848454610d14565b825550505050565b600090565b610dce610dc1565b610dd9818484610d9c565b505050565b5b81811015610dfd57610df2600082610dc6565b600181019050610ddf565b5050565b601f821115610e4257610e1381610ce2565b610e1c84610cf7565b81016020851015610e2b578190505b610e3f610e3785610cf7565b830182610dde565b50505b505050565b600082821c905092915050565b6000610e6560001984600802610e47565b1980831691505092915050565b6000610e7e8383610e54565b9150826002028217905092915050565b610e97826108a7565b67ffffffffffffffff811115610eb057610eaf610cb3565b5b610eba8254610b6f565b610ec5828285610e01565b600060209050601f831160018114610ef85760008415610ee6578287015190505b610ef08582610e72565b865550610f58565b601f198416610f0686610ce2565b60005b82811015610f2e57848901518255600182019150602085019450602081019050610f09565b86831015610f4b5784890151610f47601f891682610e54565b8355505b6001600288020188555050505b505050505050565b6000610f6c8385610bca565b9350610f79838584610af3565b610f82836108ed565b840190509392505050565b610f9681610937565b82525050565b60006040820190508181036000830152610fb7818587610f60565b9050610fc66020830184610f8d565b94935050505056fea26469706673582212203689b4efe388fa20ea88c5b412f04e530ecc7c5f392535186bae0fa55359391264736f6c63430008180033",
  "linkReferences": {},
  "deployedLinkReferences": {}
}