{
  "_format": "hh-sol-artifact-1",
  "contractName": "UserRegistry",
  "sourceName": "blockchain/contracts/UserRegistry.sol",
  "abi": [
    {
      "inputs": [],
      "stateMutability": "nonpayable",
      "type": "constructor"
    },
    {
      "anonymous": false,
      "inputs": [
        {
          "indexed": false,
          "internalType": "string",
          "name": "userId",
          "type": "string"
        },
        {
          "indexed": false,
          "internalType": "string",
          "name": "role",
          "type": "string"
        }
      ],
      "name": "UserRegistered",
      "type": "event"
    },
    {
      "inputs": [
        {
          "internalType": "string",
          "name": "_userId",
          "type": "string"
        }
      ],
      "name": "getUserRole",
      "outputs": [
        {
          "internalType": "string",
          "name": "",
          "type": "string"
        },
        {
          "internalType": "bool",
          "name": "",
          "type": "bool"
        }
      ],
      "stateMutability": "view",
      "type": "function"
    },
    {
      "inputs": [],
      "name": "owner",
      "outputs": [
        {
          "internalType": "address",
          "name": "",
          "type": "address"
        }
      ],
      "stateMutability": "view",
      "type": "function"
    },
    {
      "inputs": [
        {
          "internalType": "string",
          "name": "_userId",
          "type": "string"
        },
        {
          "internalType": "string",
          "name": "_role",
          "type": "string"
        }
      ],
      "name": "registerUser",
      "outputs": [],
      "stateMutability": "nonpayable",
      "type": "function"
    },
    {
      "inputs": [
        {
          "internalType": "string",
          "name": "",
          "type": "string"
        }
      ],
      "name": "users",
      "outputs": [
        {
          "internalType": "string",
          "name": "userId",
          "type": "string"
        },
        {
          "internalType": "string",
          "name": "role",
          "type": "string"
        },
        {
          "internalType": "bool",
          "name": "isRegistered",
          "type": "bool"
        }
      ],
      "stateMutability": "view",
      "type": "function"
    }
  ],
  "bytecode": "0x608060405234801561001057600080fd5b5033600160006101000a81548173ffffffffffffffffffffffffffffffffffffffff021916908373ffffffffffffffffffffffffffffffffffffffff160217905550610d2b806100616000396000f3fe608060405234801561001057600080fd5b506004361061004c5760003560e01c80631d2e4afd14610051578063357e129e1461006d578063689e1c031461009e5780638da5cb5b146100d0575b600080fd5b61006b60048036038101906100669190610659565b6100ee565b005b610087600480360381019061008291906106d1565b610294565b6040516100959291906107b4565b60405180910390f35b6100b860048036038101906100b391906106d1565b61037c565b6040516100c7939291906107e4565b60405180910390f35b6100d86104d9565b6040516100e5919061086a565b60405180910390f35b600080836040516100ff91906108c1565b9081526020016040518091039020600001805461011b90610907565b90501461015d576040517f08c379a000000000000000000000000000000000000000000000000000000000815260040161015490610984565b60405180910390fd5b60008260405161016d91906108c1565b908152602001604051809103902060020160009054906101000a900460ff16156101cc576040517f08c379a00000000000000000000000000000000000000000000000000000000081526004016101c390610a16565b60405180910390fd5b6040518060600160405280838152602001828152602001600115158152506000836040516101fa91906108c1565b9081526020016040518091039020600082015181600001908161021d9190610bec565b5060208201518160010190816102339190610bec565b5060408201518160020160006101000a81548160ff0219169083151502179055509050507f996d7324173609959370942b1ee1b743dc623b3d50459e66c1d55df55e5a9f378282604051610288929190610cbe565b60405180910390a15050565b6060600080836040516102a791906108c1565b90815260200160405180910390206001016000846040516102c891906108c1565b908152602001604051809103902060020160009054906101000a900460ff168180546102f390610907565b80601f016020809104026020016040519081016040528092919081815260200182805461031f90610907565b801561036c5780601f106103415761010080835404028352916020019161036c565b820191906000526020600020905b81548152906001019060200180831161034f57829003601f168201915b5050505050915091509150915091565b6000818051602081018201805184825260208301602085012081835280955050505050506000915090508060000180546103b590610907565b80601f01602080910402602001604051908101604052809291908181526020018280546103e190610907565b801561042e5780601f106104035761010080835404028352916020019161042e565b820191906000526020600020905b81548152906001019060200180831161041157829003601f168201915b50505050509080600101805461044390610907565b80601f016020809104026020016040519081016040528092919081815260200182805461046f90610907565b80156104bc5780601f10610491576101008083540402835291602001916104bc565b820191906000526020600020905b81548152906001019060200180831161049f57829003601f168201915b5050505050908060020160009054906101000a900460ff16905083565b600160009054906101000a900473ffffffffffffffffffffffffffffffffffffffff1681565b6000604051905090565b600080fd5b600080fd5b600080fd5b600080fd5b6000601f19601f8301169050919050565b7f4e487b7100000000000000000000000000000000000000000000000000000000600052604160045260246000fd5b6105668261051d565b810181811067ffffffffffffffff821117156105855761058461052e565b5b80604052505050565b60006105986104ff565b90506105a4828261055d565b919050565b600067ffffffffffffffff8211156105c4576105c361052e565b5b6105cd8261051d565b9050602081019050919050565b82818337600083830152505050565b60006105fc6105f7846105a9565b61058e565b90508281526020810184848401111561061857610617610518565b5b6106238482856105da565b509392505050565b600082601f8301126106405761063f610513565b5b81356106508482602086016105e9565b91505092915050565b600080604083850312156106705761066f610509565b5b600083013567ffffffffffffffff81111561068e5761068d61050e565b5b61069a8582860161062b565b925050602083013567ffffffffffffffff8111156106bb576106ba61050e565b5b6106c78582860161062b565b9150509250929050565b6000602082840312156106e7576106e6610509565b5b600082013567ffffffffffffffff8111156107055761070461050e565b5b6107118482850161062b565b91505092915050565b600081519050919050565b600082825260208201905092915050565b60005b83811015610754578082015181840152602081019050610739565b60008484015250505050565b600061076b8261071a565b6107758185610725565b9350610785818560208601610736565b61078e8161051d565b840191505092915050565b60008115159050919050565b6107ae81610799565b82525050565b600060408201905081810360008301526107ce8185610760565b90506107dd60208301846107a5565b9392505050565b600060608201905081810360008301526107fe8186610760565b905081810360208301526108128185610760565b905061082160408301846107a5565b949350505050565b600073ffffffffffffffffffffffffffffffffffffffff82169050919050565b600061085482610829565b9050919050565b61086481610849565b82525050565b600060208201905061087f600083018461085b565b92915050565b600081905092915050565b600061089b8261071a565b6108a58185610885565b93506108b5818560208601610736565b80840191505092915050565b60006108cd8284610890565b915081905092915050565b7f4e487b7100000000000000000000000000000000000000000000000000000000600052602260045260246000fd5b6000600282049050600182168061091f57607f821691505b602082108103610932576109316108d8565b5b50919050565b7f5573657220494420616c72656164792072656769737465726564000000000000600082015250565b600061096e601a83610725565b915061097982610938565b602082019050919050565b6000602082019050818103600083015261099d81610961565b9050919050565b7f5573657220666c616720696e6469636174657320616c7265616479207265676960008201527f7374657265640000000000000000000000000000000000000000000000000000602082015250565b6000610a00602683610725565b9150610a0b826109a4565b604082019050919050565b60006020820190508181036000830152610a2f816109f3565b9050919050565b60008190508160005260206000209050919050565b60006020601f8301049050919050565b600082821b905092915050565b600060088302610a987fffffffffffffffffffffffffffffffffffffffffffffffffffffffffffffffff82610a5b565b610aa28683610a5b565b95508019841693508086168417925050509392505050565b6000819050919050565b6000819050919050565b6000610ae9610ae4610adf84610aba565b610ac4565b610aba565b9050919050565b6000819050919050565b610b0383610ace565b610b17610b0f82610af0565b848454610a68565b825550505050565b600090565b610b2c610b1f565b610b37818484610afa565b505050565b5b81811015610b5b57610b50600082610b24565b600181019050610b3d565b5050565b601f821115610ba057610b7181610a36565b610b7a84610a4b565b81016020851015610b89578190505b610b9d610b9585610a4b565b830182610b3c565b50505b505050565b600082821c905092915050565b6000610bc360001984600802610ba5565b1980831691505092915050565b6000610bdc8383610bb2565b9150826002028217905092915050565b610bf58261071a565b67ffffffffffffffff811115610c0e57610c0d61052e565b5b610c188254610907565b610c23828285610b5f565b600060209050601f831160018114610c565760008415610c44578287015190505b610c4e8582610bd0565b865550610cb6565b601f198416610c6486610a36565b60005b82811015610c8c57848901518255600182019150602085019450602081019050610c67565b86831015610ca95784890151610ca5601f891682610bb2565b8355505b6001600288020188555050505b505050505050565b60006040820190508181036000830152610cd88185610760565b90508181036020830152610cec8184610760565b9050939250505056fea2646970667358221220d57664af7dece6752b2004d9836bb143d9267cf3c65a53a99c1cd8d0289c7d6f64736f6c63430008180033",
  "linkReferences": {},
  "deployedLinkReferences": {}
}