{"blockchain/contracts/MedicalRecordRegistry.sol":{"MedicalRecordRegistry":{"abi":[{"inputs":[{"internalType":"bytes32","name":"recordHash","type":"bytes32"}],"name":"RecordAlreadyExists","type":"error"},{"anonymous":false,"inputs":[{"indexed":true,"internalType":"bytes32","name":"recordHash","type":"bytes32"},{"indexed":true,"internalType":"string","name":"patientDid","type":"string"},{"indexed":false,"internalType":"string","name":"recordType","type":"string"},{"indexed":false,"internalType":"uint256","name":"timestamp","type":"uint256"},{"indexed":true,"internalType":"address","name":"submitter","type":"address"}],"name":"RecordAdded","type":"event"},{"inputs":[{"internalType":"bytes32","name":"recordHash","type":"bytes32"},{"internalType":"string","name":"patientDid","type":"string"},{"internalType":"string","name":"recordType","type":"string"}],"name":"addRecord","outputs":[],"stateMutability":"nonpayable","type":"function"},{"inputs":[{"internalType":"string","name":"patientDid","type":"string"}],"name":"getRecordHashesByPatient","outputs":[{"internalType":"bytes32[]","name":"","type":"bytes32[]"}],"stateMutability":"view","type":"function"},{"inputs":[{"internalType":"bytes32","name":"recordHash","type":"bytes32"}],"name":"getRecordMetadata","outputs":[{"components":[{"internalType":"string","name":"patientDid","type":"string"},{"internalType":"string","name":"recordType","type":"string"},{"internalType":"uint256","name":"timestamp","type":"uint256"},{"internalType":"address","name":"submitter","type":"address"}],"internalType":"struct MedicalRecordRegistry.RecordMetadata","name":"","type":"tuple"}],"stateMutability":"view","type":"function"},{"inputs":[{"internalType":"bytes32","name":"","type":"bytes32"}],"name":"recordExists","outputs":[{"internalType":"bool","name":"","type":"bool"}],"stateMutability":"view","type":"function"}],"evm":{"bytecode":{"linkReferences":{},"object":"608060405234801561001057600080fd5b50611004806100206000396000f3fe608060405234801561001057600080fd5b506004361061004c5760003560e01c80633e9bbc8a1461005157806357f0830414610081578063e27929b6146100b1578063f79fe538146100cd575b600080fd5b61006b60048036038101906100669190610717565b6100fd565b604051610078919061082c565b60405180910390f35b61009b6004803603810190610096919061087a565b610176565b6040516100a891906109fb565b60405180910390f35b6100cb60048036038101906100c69190610a1d565b610326565b005b6100e760048036038101906100e2919061087a565b61064a565b6040516100f49190610acd565b60405180910390f35b606060028383604051610111929190610b27565b908152602001604051809103902080548060200260200160405190810160405280929190818152602001828054801561016957602002820191906000526020600020905b815481526020019060010190808311610155575b5050505050905092915050565b61017e61066a565b6000808381526020019081526020016000206040518060800160405290816000820180546101ab90610b6f565b80601f01602080910402602001604051908101604052809291908181526020018280546101d790610b6f565b80156102245780601f106101f957610100808354040283529160200191610224565b820191906000526020600020905b81548152906001019060200180831161020757829003601f168201915b5050505050815260200160018201805461023d90610b6f565b80601f016020809104026020016040519081016040528092919081815260200182805461026990610b6f565b80156102b65780601f1061028b576101008083540402835291602001916102b6565b820191906000526020600020905b81548152906001019060200180831161029957829003601f168201915b50505050508152602001600282015481526020016003820160009054906101000a900473ffffffffffffffffffffffffffffffffffffffff1673ffffffffffffffffffffffffffffffffffffffff1673ffffffffffffffffffffffffffffffffffffffff16815250509050919050565b6001600086815260200190815260200160002060009054906101000a900460ff161561038957846040517f268888cc0000000000000000000000000000000000000000000000000000000081526004016103809190610baf565b60405180910390fd5b600084849050116103cf576040517f08c379a00000000000000000000000000000000000000000000000000000000081526004016103c690610c27565b60405180910390fd5b60008282905011610415576040517f08c379a000000000000000000000000000000000000000000000000000000000815260040161040c90610c93565b60405180910390fd5b604051806080016040528085858080601f016020809104026020016040519081016040528093929190818152602001838380828437600081840152601f19601f82011690508083019250505050505050815260200183838080601f016020809104026020016040519081016040528093929190818152602001838380828437600081840152601f19601f8201169050808301925050505050505081526020014281526020013373ffffffffffffffffffffffffffffffffffffffff1681525060008087815260200190815260200160002060008201518160000190816104fb9190610e8e565b5060208201518160010190816105119190610e8e565b506040820151816002015560608201518160030160006101000a81548173ffffffffffffffffffffffffffffffffffffffff021916908373ffffffffffffffffffffffffffffffffffffffff160217905550905050600180600087815260200190815260200160002060006101000a81548160ff021916908315150217905550600284846040516105a3929190610b27565b90815260200160405180910390208590806001815401808255809150506001900390600052602060002001600090919091909150553373ffffffffffffffffffffffffffffffffffffffff1684846040516105ff929190610b27565b6040518091039020867f5693ecc9d8c2c67feec2049afcb72e0be42f83e7e62b0be1a76d00c8af4f9f7485854260405161063b93929190610f9c565b60405180910390a45050505050565b60016020528060005260406000206000915054906101000a900460ff1681565b6040518060800160405280606081526020016060815260200160008152602001600073ffffffffffffffffffffffffffffffffffffffff1681525090565b600080fd5b600080fd5b600080fd5b600080fd5b600080fd5b60008083601f8401126106d7576106d66106b2565b5b8235905067ffffffffffffffff8111156106f4576106f36106b7565b5b6020830191508360018202830111156107105761070f6106bc565b5b9250929050565b6000806020838503121561072e5761072d6106a8565b5b600083013567ffffffffffffffff81111561074c5761074b6106ad565b5b610758858286016106c1565b92509250509250929050565b600081519050919050565b600082825260208201905092915050565b6000819050602082019050919050565b6000819050919050565b6107a381610790565b82525050565b60006107b5838361079a565b60208301905092915050565b6000602082019050919050565b60006107d982610764565b6107e3818561076f565b93506107ee83610780565b8060005b8381101561081f57815161080688826107a9565b9750610811836107c1565b9250506001810190506107f2565b5085935050505092915050565b6000602082019050818103600083015261084681846107ce565b905092915050565b61085781610790565b811461086257600080fd5b50565b6000813590506108748161084e565b92915050565b6000602082840312156108905761088f6106a8565b5b600061089e84828501610865565b91505092915050565b600081519050919050565b600082825260208201905092915050565b60005b838110156108e15780820151818401526020810190506108c6565b60008484015250505050565b6000601f19601f8301169050919050565b6000610909826108a7565b61091381856108b2565b93506109238185602086016108c3565b61092c816108ed565b840191505092915050565b6000819050919050565b61094a81610937565b82525050565b600073ffffffffffffffffffffffffffffffffffffffff82169050919050565b600061097b82610950565b9050919050565b61098b81610970565b82525050565b600060808301600083015184820360008601526109ae82826108fe565b915050602083015184820360208601526109c882826108fe565b91505060408301516109dd6040860182610941565b5060608301516109f06060860182610982565b508091505092915050565b60006020820190508181036000830152610a158184610991565b905092915050565b600080600080600060608688031215610a3957610a386106a8565b5b6000610a4788828901610865565b955050602086013567ffffffffffffffff811115610a6857610a676106ad565b5b610a74888289016106c1565b9450945050604086013567ffffffffffffffff811115610a9757610a966106ad565b5b610aa3888289016106c1565b92509250509295509295909350565b60008115159050919050565b610ac781610ab2565b82525050565b6000602082019050610ae26000830184610abe565b92915050565b600081905092915050565b82818337600083830152505050565b6000610b0e8385610ae8565b9350610b1b838584610af3565b82840190509392505050565b6000610b34828486610b02565b91508190509392505050565b7f4e487b7100000000000000000000000000000000000000000000000000000000600052602260045260246000fd5b60006002820490506001821680610b8757607f821691505b602082108103610b9a57610b99610b40565b5b50919050565b610ba981610790565b82525050565b6000602082019050610bc46000830184610ba0565b92915050565b600082825260208201905092915050565b7f50617469656e74204449442063616e6e6f7420626520656d7074790000000000600082015250565b6000610c11601b83610bca565b9150610c1c82610bdb565b602082019050919050565b60006020820190508181036000830152610c4081610c04565b9050919050565b7f5265636f726420747970652063616e6e6f7420626520656d7074790000000000600082015250565b6000610c7d601b83610bca565b9150610c8882610c47565b602082019050919050565b60006020820190508181036000830152610cac81610c70565b9050919050565b7f4e487b7100000000000000000000000000000000000000000000000000000000600052604160045260246000fd5b60008190508160005260206000209050919050565b60006020601f8301049050919050565b600082821b905092915050565b600060088302610d447fffffffffffffffffffffffffffffffffffffffffffffffffffffffffffffffff82610d07565b610d4e8683610d07565b95508019841693508086168417925050509392505050565b6000819050919050565b6000610d8b610d86610d8184610937565b610d66565b610937565b9050919050565b6000819050919050565b610da583610d70565b610db9610db182610d92565b848454610d14565b825550505050565b600090565b610dce610dc1565b610dd9818484610d9c565b505050565b5b81811015610dfd57610df2600082610dc6565b600181019050610ddf565b5050565b601f821115610e4257610e1381610ce2565b610e1c84610cf7565b81016020851015610e2b578190505b610e3f610e3785610cf7565b830182610dde565b50505b505050565b600082821c905092915050565b6000610e6560001984600802610e47565b1980831691505092915050565b6000610e7e8383610e54565b9150826002028217905092915050565b610e97826108a7565b67ffffffffffffffff811115610eb057610eaf610cb3565b5b610eba8254610b6f565b610ec5828285610e01565b600060209050601f831160018114610ef85760008415610ee6578287015190505b610ef08582610e72565b865550610f58565b601f198416610f0686610ce2565b60005b82811015610f2e57848901518255600182019150602085019450602081019050610f09565b86831015610f4b5784890151610f47601f891682610e54565b8355505b6001600288020188555050505b505050505050565b6000610f6c8385610bca565b9350610f79838584610af3565b610f82836108ed565b840190509392505050565b610f9681610937565b82525050565b60006040820190508181036000830152610fb7818587610f60565b9050610fc66020830184610f8d565b94935050505056fea26469706673582212203689b4efe388fa20ea88c5b412f04e530ecc7c5f392535186bae0fa55359391264736f6c63430008180033","opcodes":"PUSH1 0x80 PUSH1 0x40 MSTORE CALLVALUE DUP1 ISZERO PUSH2 0x10 JUMPI PUSH1 0x0 DUP1 REVERT JUMPDEST POP PUSH2 0x1004 DUP1 PUSH2 0x20 PUSH1 0x0 CODECOPY PUSH1 0x0 RETURN INVALID PUSH1 0x80 PUSH1 0x40 MSTORE CALLVALUE DUP1 ISZERO PUSH2 0x10 JUMPI PUSH1 0x0 DUP1 REVERT JUMPDEST POP PUSH1 0x4 CALLDATASIZE LT PUSH2 0x4C JUMPI PUSH1 0x0 CALLDATALOAD PUSH1 0xE0 SHR DUP1 PUSH4 0x3E9BBC8A EQ PUSH2 0x51 JUMPI DUP1 PUSH4 0x57F08304 EQ PUSH2 0x81 JUMPI DUP1 PUSH4 0xE27929B6 EQ PUSH2 0xB1 JUMPI DUP1 PUSH4 0xF79FE538 EQ PUSH2 0xCD JUMPI JUMPDEST PUSH1 0x0 DUP1 REVERT JUMPDEST PUSH2 0x6B PUSH1 0x4 DUP1 CALLDATASIZE SUB DUP2 ADD SWAP1 PUSH2 0x66 SWAP2 SWAP1 PUSH2 0x717 JUMP JUMPDEST PUSH2 0xFD JUMP JUMPDEST PUSH1 0x40 MLOAD PUSH2 0x78 SWAP2 SWAP1 PUSH2 0x82C JUMP JUMPDEST PUSH1 0x40 MLOAD DUP1 SWAP2 SUB SWAP1 RETURN JUMPDEST PUSH2 0x9B PUSH1 0x4 DUP1 CALLDATASIZE SUB DUP2 ADD SWAP1 PUSH2 0x96 SWAP2 SWAP1 PUSH2 0x87A JUMP JUMPDEST PUSH2 0x176 JUMP JUMPDEST PUSH1 0x40 MLOAD PUSH2 0xA8 SWAP2 SWAP1 PUSH2 0x9FB JUMP JUMPDEST PUSH1 0x40 MLOAD DUP1 SWAP2 SUB SWAP1 RETURN JUMPDEST PUSH2 0xCB PUSH1 0x4 DUP1 CALLDATASIZE SUB DUP2 ADD SWAP1 PUSH2 0xC6 SWAP2 SWAP1 PUSH2 0xA1D JUMP JUMPDEST PUSH2 0x326 JUMP JUMPDEST STOP JUMPDEST PUSH2 0xE7 PUSH1 0x4 DUP1 CALLDATASIZE SUB DUP2 ADD SWAP1 PUSH2 0xE2 SWAP2 SWAP1 PUSH2 0x87A JUMP JUMPDEST PUSH2 0x64A JUMP JUMPDEST PUSH1 0x40 MLOAD PUSH2 0xF4 SWAP2 SWAP1 PUSH2 0xACD JUMP JUMPDEST PUSH1 0x40 MLOAD DUP1 SWAP2 SUB SWAP1 RETURN JUMPDEST PUSH1 0x60 PUSH1 0x2 DUP4 DUP4 PUSH1 0x40 MLOAD PUSH2 0x111 SWAP3 SWAP2 SWAP1 PUSH2 0xB27 JUMP JUMPDEST SWAP1 DUP2 MSTORE PUSH1 0x20 ADD PUSH1 0x40 MLOAD DUP1 SWAP2 SUB SWAP1 KECCAK256 DUP1 SLOAD DUP1 PUSH1 0x20 MUL PUSH1 0x20 ADD PUSH1 0x40 MLOAD SWAP1 DUP2 ADD PUSH1 0x40 MSTORE DUP1 SWAP3 SWAP2 SWAP1 DUP2 DUP2 MSTORE PUSH1 0x20 ADD DUP3 DUP1 SLOAD DUP1 ISZERO PUSH2 0x169 JUMPI PUSH1 0x20 MUL DUP3 ADD SWAP2 SWAP1 PUSH1 0x0 MSTORE PUSH1 0x20 PUSH1 0x0 KECCAK256 SWAP1 JUMPDEST DUP2 SLOAD DUP2 MSTORE PUSH1 0x20 ADD SWAP1 PUSH1 0x1 ADD SWAP1 DUP1 DUP4 GT PUSH2 0x155 JUMPI JUMPDEST POP POP POP POP POP SWAP1 POP SWAP3 SWAP2 POP POP JUMP JUMPDEST PUSH2 0x17E PUSH2 0x66A JUMP JUMPDEST PUSH1 0x0 DUP1 DUP4 DUP2 MSTORE PUSH1 0x20 ADD SWAP1 DUP2 MSTORE PUSH1 0x20 ADD PUSH1 0x0 KECCAK256 PUSH1 0x40 MLOAD DUP1 PUSH1 0x80 ADD PUSH1 0x40 MSTORE SWAP1 DUP2 PUSH1 0x0 DUP3 ADD DUP1 SLOAD PUSH2 0x1AB SWAP1 PUSH2 0xB6F JUMP JUMPDEST DUP1 PUSH1 0x1F ADD PUSH1 0x20 DUP1 SWAP2 DIV MUL PUSH1 0x20 ADD PUSH1 0x40 MLOAD SWAP1 DUP2 ADD PUSH1 0x40 MSTORE DUP1 SWAP3 SWAP2 SWAP1 DUP2 DUP2 MSTORE PUSH1 0x20 ADD DUP3 DUP1 SLOAD PUSH2 0x1D7 SWAP1 PUSH2 0xB6F JUMP JUMPDEST DUP1 ISZERO PUSH2 0x224 JUMPI DUP1 PUSH1 0x1F LT PUSH2 0x1F9 JUMPI PUSH2 0x100 DUP1 DUP4 SLOAD DIV MUL DUP4 MSTORE SWAP2 PUSH1 0x20 ADD SWAP2 PUSH2 0x224 JUMP JUMPDEST DUP3 ADD SWAP2 SWAP1 PUSH1 0x0 MSTORE PUSH1 0x20 PUSH1 0x0 KECCAK256 SWAP1 JUMPDEST DUP2 SLOAD DUP2 MSTORE SWAP1 PUSH1 0x1 ADD SWAP1 PUSH1 0x20 ADD DUP1 DUP4 GT PUSH2 0x207 JUMPI DUP3 SWAP1 SUB PUSH1 0x1F AND DUP3 ADD SWAP2 JUMPDEST POP POP POP POP POP DUP2 MSTORE PUSH1 0x20 ADD PUSH1 0x1 DUP3 ADD DUP1 SLOAD PUSH2 0x23D SWAP1 PUSH2 0xB6F JUMP JUMPDEST DUP1 PUSH1 0x1F ADD PUSH1 0x20 DUP1 SWAP2 DIV MUL PUSH1 0x20 ADD PUSH1 0x40 MLOAD SWAP1 DUP2 ADD PUSH1 0x40 MSTORE DUP1 SWAP3 SWAP2 SWAP1 DUP2 DUP2 MSTORE PUSH1 0x20 ADD DUP3 DUP1 SLOAD PUSH2 0x269 SWAP1 PUSH2 0xB6F JUMP JUMPDEST DUP1 ISZERO PUSH2 0x2B6 JUMPI DUP1 PUSH1 0x1F LT PUSH2 0x28B JUMPI PUSH2 0x100 DUP1 DUP4 SLOAD DIV MUL DUP4 MSTORE SWAP2 PUSH1 0x20 ADD SWAP2 PUSH2 0x2B6 JUMP JUMPDEST DUP3 ADD SWAP2 SWAP1 PUSH1 0x0 MSTORE PUSH1 0x20 PUSH1 0x0 KECCAK256 SWAP1 JUMPDEST DUP2 SLOAD DUP2 MSTORE SWAP1 PUSH1 0x1 ADD SWAP1 PUSH1 0x20 ADD DUP1 DUP4 GT PUSH2 0x299 JUMPI DUP3 SWAP1 SUB PUSH1 0x1F AND DUP3 ADD SWAP2 JUMPDEST POP POP POP POP POP DUP2 MSTORE PUSH1 0x20 ADD PUSH1 0x2 DUP3 ADD SLOAD DUP2 MSTORE PUSH1 0x20 ADD PUSH1 0x3 DUP3 ADD PUSH1 0x0 SWAP1 SLOAD SWAP1 PUSH2 0x100 EXP SWAP1 DIV PUSH20 0xFFFFFFFFFFFFFFFFFFFFFFFFFFFFFFFFFFFFFFFF AND PUSH20 0xFFFFFFFFFFFFFFFFFFFFFFFFFFFFFFFFFFFFFFFF AND PUSH20 0xFFFFFFFFFFFFFFFFFFFFFFFFFFFFFFFFFFFFFFFF AND DUP2 MSTORE POP POP SWAP1 POP SWAP2 SWAP1 POP JUMP JUMPDEST PUSH1 0x1 PUSH1 0x0 DUP7 DUP2 MSTORE PUSH1 0x20 ADD SWAP1 DUP2 MSTORE PUSH1 0x20 ADD PUSH1 0x0 KECCAK256 PUSH1 0x0 SWAP1 SLOAD SWAP1 PUSH2 0x100 EXP SWAP1 DIV PUSH1 0xFF AND ISZERO PUSH2 0x389 JUMPI DUP5 PUSH1 0x40 MLOAD PUSH32 0x268888CC00000000000000000000000000000000000000000000000000000000 DUP2 MSTORE PUSH1 0x4 ADD PUSH2 0x380 SWAP2 SWAP1 PUSH2 0xBAF JUMP JUMPDEST PUSH1 0x40 MLOAD DUP1 SWAP2 SUB SWAP1 REVERT JUMPDEST PUSH1 0x0 DUP5 DUP5 SWAP1 POP GT PUSH2 0x3CF JUMPI PUSH1 0x40 MLOAD PUSH32 0x8C379A000000000000000000000000000000000000000000000000000000000 DUP2 MSTORE PUSH1 0x4 ADD PUSH2 0x3C6 SWAP1 PUSH2 0xC27 JUMP JUMPDEST PUSH1 0x40 MLOAD DUP1 SWAP2 SUB SWAP1 REVERT JUMPDEST PUSH1 0x0 DUP3 DUP3 SWAP1 POP GT PUSH2 0x415 JUMPI PUSH1 0x40 MLOAD PUSH32 0x8C379A000000000000000000000000000000000000000000000000000000000 DUP2 MSTORE PUSH1 0x4 ADD PUSH2 0x40C SWAP1 PUSH2 0xC93 JUMP JUMPDEST PUSH1 0x40 MLOAD DUP1 SWAP2 SUB SWAP1 REVERT JUMPDEST PUSH1 0x40 MLOAD DUP1 PUSH1 0x80 ADD PUSH1 0x40 MSTORE DUP1 DUP6 DUP6 DUP1 DUP1 PUSH1 0x1F ADD PUSH1 0x20 DUP1 SWAP2 DIV MUL PUSH1 0x20 ADD PUSH1 0x40 MLOAD SWAP1 DUP2 ADD PUSH1 0x40 MSTORE DUP1 SWAP4 SWAP3 SWAP2 SWAP1 DUP2 DUP2 MSTORE PUSH1 0x20 ADD DUP4 DUP4 DUP1 DUP3 DUP5 CALLDATACOPY PUSH1 0x0 DUP2 DUP5 ADD MSTORE PUSH1 0x1F NOT PUSH1 0x1F DUP3 ADD AND SWAP1 POP DUP1 DUP4 ADD SWAP3 POP POP POP POP POP POP POP DUP2 MSTORE PUSH1 0x20 ADD DUP4 DUP4 DUP1 DUP1 PUSH1 0x1F ADD PUSH1 0x20 DUP1 SWAP2 DIV MUL PUSH1 0x20 ADD PUSH1 0x40 MLOAD SWAP1 DUP2 ADD PUSH1 0x40 MSTORE DUP1 SWAP4 SWAP3 SWAP2 SWAP1 DUP2 DUP2 MSTORE PUSH1 0x20 ADD DUP4 DUP4 DUP1 DUP3 DUP5 CALLDATACOPY PUSH1 0x0 DUP2 DUP5 ADD MSTORE PUSH1 0x1F NOT PUSH1 0x1F DUP3 ADD AND SWAP1 POP DUP1 DUP4 ADD SWAP3 POP POP POP POP POP POP POP DUP2 MSTORE PUSH1 0x20 ADD TIMESTAMP DUP2 MSTORE PUSH1 0x20 ADD CALLER PUSH20 0xFFFFFFFFFFFFFFFFFFFFFFFFFFFFFFFFFFFFFFFF AND DUP2 MSTORE POP PUSH1 0x0 DUP1 DUP8 DUP2 MSTORE PUSH1 0x20 ADD SWAP1 DUP2 MSTORE PUSH1 0x20 ADD PUSH1 0x0 KECCAK256 PUSH1 0x0 DUP3 ADD MLOAD DUP2 PUSH1 0x0 ADD SWAP1 DUP2 PUSH2 0x4FB SWAP2 SWAP1 PUSH2 0xE8E JUMP JUMPDEST POP PUSH1 0x20 DUP3 ADD MLOAD DUP2 PUSH1 0x1 ADD SWAP1 DUP2 PUSH2 0x511 SWAP2 SWAP1 PUSH2 0xE8E JUMP JUMPDEST POP PUSH1 0x40 DUP3 ADD MLOAD DUP2 PUSH1 0x2 ADD SSTORE PUSH1 0x60 DUP3 ADD MLOAD DUP2 PUSH1 0x3 ADD PUSH1 0x0 PUSH2 0x100 EXP DUP2 SLOAD DUP2 PUSH20 0xFFFFFFFFFFFFFFFFFFFFFFFFFFFFFFFFFFFFFFFF MUL NOT AND SWAP1 DUP4 PUSH20 0xFFFFFFFFFFFFFFFFFFFFFFFFFFFFFFFFFFFFFFFF AND MUL OR SWAP1 SSTORE POP SWAP1 POP POP PUSH1 0x1 DUP1 PUSH1 0x0 DUP8 DUP2 MSTORE PUSH1 0x20 ADD SWAP1 DUP2 MSTORE PUSH1 0x20 ADD PUSH1 0x0 KECCAK256 PUSH1 0x0 PUSH2 0x100 EXP DUP2 SLOAD DUP2 PUSH1 0xFF MUL NOT AND SWAP1 DUP4 ISZERO ISZERO MUL OR SWAP1 SSTORE POP PUSH1 0x2 DUP5 DUP5 PUSH1 0x40 MLOAD PUSH2 0x5A3 SWAP3 SWAP2 SWAP1 PUSH2 0xB27 JUMP JUMPDEST SWAP1 DUP2 MSTORE PUSH1 0x20 ADD PUSH1 0x40 MLOAD DUP1 SWAP2 SUB SWAP1 KECCAK256 DUP6 SWAP1 DUP1 PUSH1 0x1 DUP2 SLOAD ADD DUP1 DUP3 SSTORE DUP1 SWAP2 POP POP PUSH1 0x1 SWAP1 SUB SWAP1 PUSH1 0x0 MSTORE PUSH1 0x20 PUSH1 0x0 KECCAK256 ADD PUSH1 0x0 SWAP1 SWAP2 SWAP1 SWAP2 SWAP1 SWAP2 POP SSTORE CALLER PUSH20 0xFFFFFFFFFFFFFFFFFFFFFFFFFFFFFFFFFFFFFFFF AND DUP5 DUP5 PUSH1 0x40 MLOAD PUSH2 0x5FF SWAP3 SWAP2 SWAP1 PUSH2 0xB27 JUMP JUMPDEST PUSH1 0x40 MLOAD DUP1 SWAP2 SUB SWAP1 KECCAK256 DUP7 PUSH32 0x5693ECC9D8C2C67FEEC2049AFCB72E0BE42F83E7E62B0BE1A76D00C8AF4F9F74 DUP6 DUP6 TIMESTAMP PUSH1 0x40 MLOAD PUSH2 0x63B SWAP4 SWAP3 SWAP2 SWAP1 PUSH2 0xF9C JUMP JUMPDEST PUSH1 0x40 MLOAD DUP1 SWAP2 SUB SWAP1 LOG4 POP POP POP POP POP JUMP JUMPDEST PUSH1 0x1 PUSH1 0x20 MSTORE DUP1 PUSH1 0x0 MSTORE PUSH1 0x40 PUSH1 0x0 KECCAK256 PUSH1 0x0 SWAP2 POP SLOAD SWAP1 PUSH2 0x100 EXP SWAP1 DIV PUSH1 0xFF AND DUP2 JUMP JUMPDEST PUSH1 0x40 MLOAD DUP1 PUSH1 0x80 ADD PUSH1 0x40 MSTORE DUP1 PUSH1 0x60 DUP2 MSTORE PUSH1 0x20 ADD PUSH1 0x60 DUP2 MSTORE PUSH1 0x20 ADD PUSH1 0x0 DUP2 MSTORE PUSH1 0x20 ADD PUSH1 0x0 PUSH20 0xFFFFFFFFFFFFFFFFFFFFFFFFFFFFFFFFFFFFFFFF AND DUP2 MSTORE POP SWAP1 JUMP JUMPDEST PUSH1 0x0 DUP1 REVERT JUMPDEST PUSH1 0x0 DUP1 REVERT JUMPDEST PUSH1 0x0 DUP1 REVERT JUMPDEST PUSH1 0x0 DUP1 REVERT JUMPDEST PUSH1 0x0 DUP1 REVERT JUMPDEST PUSH1 0x0 DUP1 DUP4 PUSH1 0x1F DUP5 ADD SLT PUSH2 0x6D7 JUMPI PUSH2 0x6D6 PUSH2 0x6B2 JUMP JUMPDEST JUMPDEST DUP3 CALLDATALOAD SWAP1 POP PUSH8 0xFFFFFFFFFFFFFFFF DUP2 GT ISZERO PUSH2 0x6F4 JUMPI PUSH2 0x6F3 PUSH2 0x6B7 JUMP JUMPDEST JUMPDEST PUSH1 0x20 DUP4 ADD SWAP2 POP DUP4 PUSH1 0x1 DUP3 MUL DUP4 ADD GT ISZERO PUSH2 0x710 JUMPI PUSH2 0x70F PUSH2 0x6BC JUMP JUMPDEST JUMPDEST SWAP3 POP SWAP3 SWAP1 POP JUMP JUMPDEST PUSH1 0x0 DUP1 PUSH1 0x20 DUP4 DUP6 SUB SLT ISZERO PUSH2 0x72E JUMPI PUSH2 0x72D PUSH2 0x6A8 JUMP JUMPDEST JUMPDEST PUSH1 0x0 DUP4 ADD CALLDATALOAD PUSH8 0xFFFFFFFFFFFFFFFF DUP2 GT ISZERO PUSH2 0x74C JUMPI PUSH2 0x74B PUSH2 0x6AD JUMP JUMPDEST JUMPDEST PUSH2 0x758 DUP6 DUP3 DUP7 ADD PUSH2 0x6C1 JUMP JUMPDEST SWAP3 POP SWAP3 POP POP SWAP3 POP SWAP3 SWAP1 POP JUMP JUMPDEST PUSH1 0x0 DUP2 MLOAD SWAP1 POP SWAP2 SWAP1 POP JUMP JUMPDEST PUSH1 0x0 DUP3 DUP3 MSTORE PUSH1 0x20 DUP3 ADD SWAP1 POP SWAP3 SWAP2 POP POP JUMP JUMPDEST PUSH1 0x0 DUP2 SWAP1 POP PUSH1 0x20 DUP3 ADD SWAP1 POP SWAP2 SWAP1 POP JUMP JUMPDEST PUSH1 0x0 DUP2 SWAP1 POP SWAP2 SWAP1 POP JUMP JUMPDEST PUSH2 0x7A3 DUP2 PUSH2 0x790 JUMP JUMPDEST DUP3 MSTORE POP POP JUMP JUMPDEST PUSH1 0x0 PUSH2 0x7B5 DUP4 DUP4 PUSH2 0x79A JUMP JUMPDEST PUSH1 0x20 DUP4 ADD SWAP1 POP SWAP3 SWAP2 POP POP JUMP JUMPDEST PUSH1 0x0 PUSH1 0x20 DUP3 ADD SWAP1 POP SWAP2 SWAP1 POP JUMP JUMPDEST PUSH1 0x0 PUSH2 0x7D9 DUP3 PUSH2 0x764 JUMP JUMPDEST PUSH2 0x7E3 DUP2 DUP6 PUSH2 0x76F JUMP JUMPDEST SWAP4 POP PUSH2 0x7EE DUP4 PUSH2 0x780 JUMP JUMPDEST DUP1 PUSH1 0x0 JUMPDEST DUP4 DUP2 LT ISZERO PUSH2 0x81F JUMPI DUP2 MLOAD PUSH2 0x806 DUP9 DUP3 PUSH2 0x7A9 JUMP JUMPDEST SWAP8 POP PUSH2 0x811 DUP4 PUSH2 0x7C1 JUMP JUMPDEST SWAP3 POP POP PUSH1 0x1 DUP2 ADD SWAP1 POP PUSH2 0x7F2 JUMP JUMPDEST POP DUP6 SWAP4 POP POP POP POP SWAP3 SWAP2 POP POP JUMP JUMPDEST PUSH1 0x0 PUSH1 0x20 DUP3 ADD SWAP1 POP DUP2 DUP2 SUB PUSH1 0x0 DUP4 ADD MSTORE PUSH2 0x846 DUP2 DUP5 PUSH2 0x7CE JUMP JUMPDEST SWAP1 POP SWAP3 SWAP2 POP POP JUMP JUMPDEST PUSH2 0x857 DUP2 PUSH2 0x790 JUMP JUMPDEST DUP2 EQ PUSH2 0x862 JUMPI PUSH1 0x0 DUP1 REVERT JUMPDEST POP JUMP JUMPDEST PUSH1 0x0 DUP2 CALLDATALOAD SWAP1 POP PUSH2 0x874 DUP2 PUSH2 0x84E JUMP JUMPDEST SWAP3 SWAP2 POP POP JUMP JUMPDEST PUSH1 0x0 PUSH1 0x20 DUP3 DUP5 SUB SLT ISZERO PUSH2 0x890 JUMPI PUSH2 0x88F PUSH2 0x6A8 JUMP JUMPDEST JUMPDEST PUSH1 0x0 PUSH2 0x89E DUP5 DUP3 DUP6 ADD PUSH2 0x865 JUMP JUMPDEST SWAP2 POP POP SWAP3 SWAP2 POP POP JUMP JUMPDEST PUSH1 0x0 DUP2 MLOAD SWAP1 POP SWAP2 SWAP1 POP JUMP JUMPDEST PUSH1 0x0 DUP3 DUP3 MSTORE PUSH1 0x20 DUP3 ADD SWAP1 POP SWAP3 SWAP2 POP POP JUMP JUMPDEST PUSH1 0x0 JUMPDEST DUP4 DUP2 LT ISZERO PUSH2 0x8E1 JUMPI DUP1 DUP3 ADD MLOAD DUP2 DUP5 ADD MSTORE PUSH1 0x20 DUP2 ADD SWAP1 POP PUSH2 0x8C6 JUMP JUMPDEST PUSH1 0x0 DUP5 DUP5 ADD MSTORE POP POP POP POP JUMP JUMPDEST PUSH1 0x0 PUSH1 0x1F NOT PUSH1 0x1F DUP4 ADD AND SWAP1 POP SWAP2 SWAP1 POP JUMP JUMPDEST PUSH1 0x0 PUSH2 0x909 DUP3 PUSH2 0x8A7 JUMP JUMPDEST PUSH2 0x913 DUP2 DUP6 PUSH2 0x8B2 JUMP JUMPDEST SWAP4 POP PUSH2 0x923 DUP2 DUP6 PUSH1 0x20 DUP7 ADD PUSH2 0x8C3 JUMP JUMPDEST PUSH2 0x92C DUP2 PUSH2 0x8ED JUMP JUMPDEST DUP5 ADD SWAP2 POP POP SWAP3 SWAP2 POP POP JUMP JUMPDEST PUSH1 0x0 DUP2 SWAP1 POP SWAP2 SWAP1 POP JUMP JUMPDEST PUSH2 0x94A DUP2 PUSH2 0x937 JUMP JUMPDEST DUP3 MSTORE POP POP JUMP JUMPDEST PUSH1 0x0 PUSH20 0xFFFFFFFFFFFFFFFFFFFFFFFFFFFFFFFFFFFFFFFF DUP3 AND SWAP1 POP SWAP2 SWAP1 POP JUMP JUMPDEST PUSH1 0x0 PUSH2 0x97B DUP3 PUSH2 0x950 JUMP JUMPDEST SWAP1 POP SWAP2 SWAP1 POP JUMP JUMPDEST PUSH2 0x98B DUP2 PUSH2 0x970 JUMP JUMPDEST DUP3 MSTORE POP POP JUMP JUMPDEST PUSH1 0x0 PUSH1 0x80 DUP4 ADD PUSH1 0x0 DUP4 ADD MLOAD DUP5 DUP3 SUB PUSH1 0x0 DUP7 ADD MSTORE PUSH2 0x9AE DUP3 DUP3 PUSH2 0x8FE JUMP JUMPDEST SWAP2 POP POP PUSH1 0x20 DUP4 ADD MLOAD DUP5 DUP3 SUB PUSH1 0x20 DUP7 ADD MSTORE PUSH2 0x9C8 DUP3 DUP3 PUSH2 0x8FE JUMP JUMPDEST SWAP2 POP POP PUSH1 0x40 DUP4 ADD MLOAD PUSH2 0x9DD PUSH1 0x40 DUP7 ADD DUP3 PUSH2 0x941 JUMP JUMPDEST POP PUSH1 0x60 DUP4 ADD MLOAD PUSH2 0x9F0 PUSH1 0x60 DUP7 ADD DUP3 PUSH2 0x982 JUMP JUMPDEST POP DUP1 SWAP2 POP POP SWAP3 SWAP2 POP POP JUMP JUMPDEST PUSH1 0x0 PUSH1 0x20 DUP3 ADD SWAP1 POP DUP2 DUP2 SUB PUSH1 0x0 DUP4 ADD MSTORE PUSH2 0xA15 DUP2 DUP5 PUSH2 0x991 JUMP JUMPDEST SWAP1 POP SWAP3 SWAP2 POP POP JUMP JUMPDEST PUSH1 0x0 DUP1 PUSH1 0x0 DUP1 PUSH1 0x0 PUSH1 0x60 DUP7 DUP9 SUB SLT ISZERO PUSH2 0xA39 JUMPI PUSH2 0xA38 PUSH2 0x6A8 JUMP JUMPDEST JUMPDEST PUSH1 0x0 PUSH2 0xA47 DUP9 DUP3 DUP10 ADD PUSH2 0x865 JUMP JUMPDEST SWAP6 POP POP PUSH1 0x20 DUP7 ADD CALLDATALOAD PUSH8 0xFFFFFFFFFFFFFFFF DUP2 GT ISZERO PUSH2 0xA68 JUMPI PUSH2 0xA67 PUSH2 0x6AD JUMP JUMPDEST JUMPDEST PUSH2 0xA74 DUP9 DUP3 DUP10 ADD PUSH2 0x6C1 JUMP JUMPDEST SWAP5 POP SWAP5 POP POP PUSH1 0x40 DUP7 ADD CALLDATALOAD PUSH8 0xFFFFFFFFFFFFFFFF DUP2 GT ISZERO PUSH2 0xA97 JUMPI PUSH2 0xA96 PUSH2 0x6AD JUMP JUMPDEST JUMPDEST PUSH2 0xAA3 DUP9 DUP3 DUP10 ADD PUSH2 0x6C1 JUMP JUMPDEST SWAP3 POP SWAP3 POP POP SWAP3 SWAP6 POP SWAP3 SWAP6 SWAP1 SWAP4 POP JUMP JUMPDEST PUSH1 0x0 DUP2 ISZERO ISZERO SWAP1 POP SWAP2 SWAP1 POP JUMP JUMPDEST PUSH2 0xAC7 DUP2 PUSH2 0xAB2 JUMP JUMPDEST DUP3 MSTORE POP POP JUMP JUMPDEST PUSH1 0x0 PUSH1 0x20 DUP3 ADD SWAP1 POP PUSH2 0xAE2 PUSH1 0x0 DUP4 ADD DUP5 PUSH2 0xABE JUMP JUMPDEST SWAP3 SWAP2 POP POP JUMP JUMPDEST PUSH1 0x0 DUP2 SWAP1 POP SWAP3 SWAP2 POP POP JUMP JUMPDEST DUP3 DUP2 DUP4 CALLDATACOPY PUSH1 0x0 DUP4 DUP4 ADD MSTORE POP POP POP JUMP JUMPDEST PUSH1 0x0 PUSH2 0xB0E DUP4 DUP6 PUSH2 0xAE8 JUMP JUMPDEST SWAP4 POP PUSH2 0xB1B DUP4 DUP6 DUP5 PUSH2 0xAF3 JUMP JUMPDEST DUP3 DUP5 ADD SWAP1 POP SWAP4 SWAP3 POP POP POP JUMP JUMPDEST PUSH1 0x0 PUSH2 0xB34 DUP3 DUP5 DUP7 PUSH2 0xB02 JUMP JUMPDEST SWAP2 POP DUP2 SWAP1 POP SWAP4 SWAP3 POP POP POP JUMP JUMPDEST PUSH32 0x4E487B7100000000000000000000000000000000000000000000000000000000 PUSH1 0x0 MSTORE PUSH1 0x22 PUSH1 0x4 MSTORE PUSH1 0x24 PUSH1 0x0 REVERT JUMPDEST PUSH1 0x0 PUSH1 0x2 DUP3 DIV SWAP1 POP PUSH1 0x1 DUP3 AND DUP1 PUSH2 0xB87 JUMPI PUSH1 0x7F DUP3 AND SWAP2 POP JUMPDEST PUSH1 0x20 DUP3 LT DUP2 SUB PUSH2 0xB9A JUMPI PUSH2 0xB99 PUSH2 0xB40 JUMP JUMPDEST JUMPDEST POP SWAP2 SWAP1 POP JUMP JUMPDEST PUSH2 0xBA9 DUP2 PUSH2 0x790 JUMP JUMPDEST DUP3 MSTORE POP POP JUMP JUMPDEST PUSH1 0x0 PUSH1 0x20 DUP3 ADD SWAP1 POP PUSH2 0xBC4 PUSH1 0x0 DUP4 ADD DUP5 PUSH2 0xBA0 JUMP JUMPDEST SWAP3 SWAP2 POP POP JUMP JUMPDEST PUSH1 0x0 DUP3 DUP3 MSTORE PUSH1 0x20 DUP3 ADD SWAP1 POP SWAP3 SWAP2 POP POP JUMP JUMPDEST PUSH32 0x50617469656E74204449442063616E6E6F7420626520656D7074790000000000 PUSH1 0x0 DUP3 ADD MSTORE POP JUMP JUMPDEST PUSH1 0x0 PUSH2 0xC11 PUSH1 0x1B DUP4 PUSH2 0xBCA JUMP JUMPDEST SWAP2 POP PUSH2 0xC1C DUP3 PUSH2 0xBDB JUMP JUMPDEST PUSH1 0x20 DUP3 ADD SWAP1 POP SWAP2 SWAP1 POP JUMP JUMPDEST PUSH1 0x0 PUSH1 0x20 DUP3 ADD SWAP1 POP DUP2 DUP2 SUB PUSH1 0x0 DUP4 ADD MSTORE PUSH2 0xC40 DUP2 PUSH2 0xC04 JUMP JUMPDEST SWAP1 POP SWAP2 SWAP1 POP JUMP JUMPDEST PUSH32 0x5265636F726420747970652063616E6E6F7420626520656D7074790000000000 PUSH1 0x0 DUP3 ADD MSTORE POP JUMP JUMPDEST PUSH1 0x0 PUSH2 0xC7D PUSH1 0x1B DUP4 PUSH2 0xBCA JUMP JUMPDEST SWAP2 POP PUSH2 0xC88 DUP3 PUSH2 0xC47 JUMP JUMPDEST PUSH1 0x20 DUP3 ADD SWAP1 POP SWAP2 SWAP1 POP JUMP JUMPDEST PUSH1 0x0 PUSH1 0x20 DUP3 ADD SWAP1 POP DUP2 DUP2 SUB PUSH1 0x0 DUP4 ADD MSTORE PUSH2 0xCAC DUP2 PUSH2 0xC70 JUMP JUMPDEST SWAP1 POP SWAP2 SWAP1 POP JUMP JUMPDEST PUSH32 0x4E487B7100000000000000000000000000000000000000000000000000000000 PUSH1 0x0 MSTORE PUSH1 0x41 PUSH1 0x4 MSTORE PUSH1 0x24 PUSH1 0x0 REVERT JUMPDEST PUSH1 0x0 DUP2 SWAP1 POP DUP2 PUSH1 0x0 MSTORE PUSH1 0x20 PUSH1 0x0 KECCAK256 SWAP1 POP SWAP2 SWAP1 POP JUMP JUMPDEST PUSH1 0x0 PUSH1 0x20 PUSH1 0x1F DUP4 ADD DIV SWAP1 POP SWAP2 SWAP1 POP JUMP JUMPDEST PUSH1 0x0 DUP3 DUP3 SHL SWAP1 POP SWAP3 SWAP2 POP POP JUMP JUMPDEST PUSH1 0x0 PUSH1 0x8 DUP4 MUL PUSH2 0xD44 PUSH32 0xFFFFFFFFFFFFFFFFFFFFFFFFFFFFFFFFFFFFFFFFFFFFFFFFFFFFFFFFFFFFFFFF DUP3 PUSH2 0xD07 JUMP JUMPDEST PUSH2 0xD4E DUP7 DUP4 PUSH2 0xD07 JUMP JUMPDEST SWAP6 POP DUP1 NOT DUP5 AND SWAP4 POP DUP1 DUP7 AND DUP5 OR SWAP3 POP POP POP SWAP4 SWAP3 POP POP POP JUMP JUMPDEST PUSH1 0x0 DUP2 SWAP1 POP SWAP2 SWAP1 POP JUMP JUMPDEST PUSH1 0x0 PUSH2 0xD8B PUSH2 0xD86 PUSH2 0xD81 DUP5 PUSH2 0x937 JUMP JUMPDEST PUSH2 0xD66 JUMP JUMPDEST PUSH2 0x937 JUMP JUMPDEST SWAP1 POP SWAP2 SWAP1 POP JUMP JUMPDEST PUSH1 0x0 DUP2 SWAP1 POP SWAP2 SWAP1 POP JUMP JUMPDEST PUSH2 0xDA5 DUP4 PUSH2 0xD70 JUMP JUMPDEST PUSH2 0xDB9 PUSH2 0xDB1 DUP3 PUSH2 0xD92 JUMP JUMPDEST DUP5 DUP5 SLOAD PUSH2 0xD14 JUMP JUMPDEST DUP3 SSTORE POP POP POP POP JUMP JUMPDEST PUSH1 0x0 SWAP1 JUMP JUMPDEST PUSH2 0xDCE PUSH2 0xDC1 JUMP JUMPDEST PUSH2 0xDD9 DUP2 DUP5 DUP5 PUSH2 0xD9C JUMP JUMPDEST POP POP POP JUMP JUMPDEST JUMPDEST DUP2 DUP2 LT ISZERO PUSH2 0xDFD JUMPI PUSH2 0xDF2 PUSH1 0x0 DUP3 PUSH2 0xDC6 JUMP JUMPDEST PUSH1 0x1 DUP2 ADD SWAP1 POP PUSH2 0xDDF JUMP JUMPDEST POP POP JUMP JUMPDEST PUSH1 0x1F DUP3 GT ISZERO PUSH2 0xE42 JUMPI PUSH2 0xE13 DUP2 PUSH2 0xCE2 JUMP JUMPDEST PUSH2 0xE1C DUP5 PUSH2 0xCF7 JUMP JUMPDEST DUP2 ADD PUSH1 0x20 DUP6 LT ISZERO PUSH2 0xE2B JUMPI DUP2 SWAP1 POP JUMPDEST PUSH2 0xE3F PUSH2 0xE37 DUP6 PUSH2 0xCF7 JUMP JUMPDEST DUP4 ADD DUP3 PUSH2 0xDDE JUMP JUMPDEST POP POP JUMPDEST POP POP POP JUMP JUMPDEST PUSH1 0x0 DUP3 DUP3 SHR SWAP1 POP SWAP3 SWAP2 POP POP JUMP JUMPDEST PUSH1 0x0 PUSH2 0xE65 PUSH1 0x0 NOT DUP5 PUSH1 0x8 MUL PUSH2 0xE47 JUMP JUMPDEST NOT DUP1 DUP4 AND SWAP2 POP POP SWAP3 SWAP2 POP POP JUMP JUMPDEST PUSH1 0x0 PUSH2 0xE7E DUP4 DUP4 PUSH2 0xE54 JUMP JUMPDEST SWAP2 POP DUP3 PUSH1 0x2 MUL DUP3 OR SWAP1 POP SWAP3 SWAP2 POP POP JUMP JUMPDEST PUSH2 0xE97 DUP3 PUSH2 0x8A7 JUMP JUMPDEST PUSH8 0xFFFFFFFFFFFFFFFF DUP2 GT ISZERO PUSH2 0xEB0 JUMPI PUSH2 0xEAF PUSH2 0xCB3 JUMP JUMPDEST JUMPDEST PUSH2 0xEBA DUP3 SLOAD PUSH2 0xB6F JUMP JUMPDEST PUSH2 0xEC5 DUP3 DUP3 DUP6 PUSH2 0xE01 JUMP JUMPDEST PUSH1 0x0 PUSH1 0x20 SWAP1 POP PUSH1 0x1F DUP4 GT PUSH1 0x1 DUP2 EQ PUSH2 0xEF8 JUMPI PUSH1 0x0 DUP5 ISZERO PUSH2 0xEE6 JUMPI DUP3 DUP8 ADD MLOAD SWAP1 POP JUMPDEST PUSH2 0xEF0 DUP6 DUP3 PUSH2 0xE72 JUMP JUMPDEST DUP7 SSTORE POP PUSH2 0xF58 JUMP JUMPDEST PUSH1 0x1F NOT DUP5 AND PUSH2 0xF06 DUP7 PUSH2 0xCE2 JUMP JUMPDEST PUSH1 0x0 JUMPDEST DUP3 DUP2 LT ISZERO PUSH2 0xF2E JUMPI DUP5 DUP10 ADD MLOAD DUP3 SSTORE PUSH1 0x1 DUP3 ADD SWAP2 POP PUSH1 0x20 DUP6 ADD SWAP5 POP PUSH1 0x20 DUP2 ADD SWAP1 POP PUSH2 0xF09 JUMP JUMPDEST DUP7 DUP4 LT ISZERO PUSH2 0xF4B JUMPI DUP5 DUP10 ADD MLOAD PUSH2 0xF47 PUSH1 0x1F DUP10 AND DUP3 PUSH2 0xE54 JUMP JUMPDEST DUP4 SSTORE POP JUMPDEST PUSH1 0x1 PUSH1 0x2 DUP9 MUL ADD DUP9 SSTORE POP POP POP JUMPDEST POP POP POP POP POP POP JUMP JUMPDEST PUSH1 0x0 PUSH2 0xF6C DUP4 DUP6 PUSH2 0xBCA JUMP JUMPDEST SWAP4 POP PUSH2 0xF79 DUP4 DUP6 DUP5 PUSH2 0xAF3 JUMP JUMPDEST PUSH2 0xF82 DUP4 PUSH2 0x8ED JUMP JUMPDEST DUP5 ADD SWAP1 POP SWAP4 SWAP3 POP POP POP JUMP JUMPDEST PUSH2 0xF96 DUP2 PUSH2 0x937 JUMP JUMPDEST DUP3 MSTORE POP POP JUMP JUMPDEST PUSH1 0x0 PUSH1 0x40 DUP3 ADD SWAP1 POP DUP2 DUP2 SUB PUSH1 0x0 DUP4 ADD MSTORE PUSH2 0xFB7 DUP2 DUP6 DUP8 PUSH2 0xF60 JUMP JUMPDEST SWAP1 POP PUSH2 0xFC6 PUSH1 0x20 DUP4 ADD DUP5 PUSH2 0xF8D JUMP JUMPDEST SWAP5 SWAP4 POP POP POP POP JUMP INVALID LOG2 PUSH5 0x6970667358 0x22 SLT KECCAK256 CALLDATASIZE DUP10 0xB4 0xEF 0xE3 DUP9 STATICCALL KECCAK256 0xEA DUP9 0xC5 0xB4 SLT CREATE 0x4E MSTORE8 0xE 0xCC PUSH29 0x5F392535186BAE0FA55359391264736F6C634300081800330000000000 "},"methodIdentifiers":{"addRecord(bytes32,string,string)":"e27929b6","getRecordHashesByPatient(string)":"3e9bbc8a","getRecordMetadata(bytes32)":"57f08304","recordExists(bytes32)":"f79fe538"}}}}}